:100726004100240042002100004200250000420052
:030736001F0000A1
:100779005389F0438901758AFC758C5CD28CC28DD2
:05078900D2A9D2AF224D
:1007630043BA01759A50438E0475D7E075D6FE439C
:060773008E1043AF0122CD
:0D07A200C2A6D282C2A0D2A4C286C2872203
:0D07AF00D2A6C282D2A0C2A4D286D28722D6
:0D07BC00D2A6C282C2A0D2A4C286D28722D9
:0D07C900C2A6D282D2A0C2A4D286C28722CC
:0907EB00C2A6C282C2A0C2A4226F
:030043000205555E
:10055500C0E0C0F0C083C082C0D075D00853AFFEE4
:100565009000247401F0C286E59A30E009539AFEA2
:10057500900023E59BF0900023E024FE600F1460BB
:10058500111460132403701E1207A2800D1207AF09
:1005950080081207BC80031207C97F2C7E01120751
:1005A500061207EB800375A0FFE59A30E103539A25
:0F05B500FD43AF01D0D0D082D083D0F0D0E03260
:03000B000204D715
:1004D700C0E0C083C082C0D0758AFC758C5CD390A5
:1004E7000026E0940A900025E0648094804004E4AC
:1004F700F0A3F090001FE07004A3E064037038C31A
:10050700900026E09405900025E0648094805024B4
:100517002080082081051207AF800E208105120771
:10052700C980062080031207BC30800B3081081277
:1005370007A280031207EB900026E004F0700690F4
:0E0547000025E004F0D0D0D082D083D0E03286
:1002C0001203B9900018EBF0A3EAF0A3E9F01205CD
:1002D000E6FFAEF020E107E4900021F0A3F0EF206C
:1002E000E207E4900021F0A3F0EF20E40990002160
:1002F000E4F0A304F022EF20E50A900021E4F0A34B
:100300007404F022EF20E60A900021E4F0A37402C6
:10031000F022EF20E70A900021E4F0A37403F0221A
:10032000EE20E4141200037F0A7E001207069000FC
:1003300021E4F0A37405F022900018E0FBA3E0FA9A
:10034000A3E0F91205E6E5F020E5141200037F0AA8
:100350007E00120706900021E4F0A37406F02290BC
:100360000018E0FBA3E0FAA3E0F91205E6E5F020AF
:10037000E6137F0A7E00120706900021E4F0A374C2
:1003800007F0020003900018E0FBA3E0FAA3E0F9F5
:100390001205E6AEF0EE20E70A900021E4F0A37427
:1003A00008F022EE20E10A900021E4F0A37409F0A5
:0803B00022E4900021F0A3F00B
:0103B8002222
:0B07D6008F9BE59A30E1FB539AFD2257
:1006E400900024E0601B53AFFE900023E0FF12074C
:1006F400D67F0D1207D67F0A1207D643AF01E4A3B3
:02070400F022E1
:1001C000E4900014F0A3F0A3F0A3F0120763120769
:1001D000791200B653933F53943F53B17F53B27F8C
:1001E0005395DF5396DF7F0A7E00120706D290D226
:1001F000911202C0C2A6C282C2A0C2A4900021E095
:10020000FEA3E0FF64054E700990001FF0A304F008
:10021000802CEF64074E700A90001FF0A37403F067
:10022000801CEF64064E700A90001FF0A37402F069
:10023000800CEF64084E700690001FF0A3F0900051
:100240001FE07004A3E0640170361207F4D2AF908F
:100250000021E0FEA3E0FFEE7023EF24FE600F1408
:100260006011146013240370141207A28012120785
:10027000AF800D1207BC80081207C980031207EB7C
:100280007F0A7E0012070690001FE07004A3E0645E
:100290000270071207F4D2AFC2A990001FE07004E9
:1002A000A3E0640370071207F4D2A9D2AF90001F35
:1002B000E07002A3E060030201F11207EB0201F11A
:10070600E4FDFCC3ED9FEC9E5015E4FBFA0BBB0029
:0F071600010ABA04F8BB4CF50DBD00010C80E4DC
:0107250022B1
:04003E007F03DFFE5F
:01004200229B
:10078E00AD07AC06ED1DAE0470011C4E60051200E7
:04079E003E80F12286
:1006BB000143000100014400010300000000014F51
:1006CB0000FFFF03000000014300005A5A5A5A5A18
:0906DB00014200000000000000D3
:0B073900420009FFFF43000601000022
:10074500D3EF9400EE940040147D527C03ED1D70B0
:0D075500011CED4C70F7EF1F70E61E80E3F5
:010762002274
:0F000E00D2927F087E00120745C2927F077E00C4
:10001D00E4FDFCD3ED9FEC9E5008000DBD00010CDE
:10002D0080F1000000000000000000000000000052
:01003D0022A0
:03068400EF93FFF2
:02068700AB07BF
:10068900E4FAEAD39407748094805023EB30E004B1
:10069900D2938002C293EBC313FB0000C2957F641F
:1006A9007E0012001DD2957F0A12001D0A80D3D246
:0106B90093AD
:0106BA00221D
:06063000EF9006DB93FFD2
:02063600AB0710
:100638007901E490001EF0FAEAD39407748094805C
:100648005032EB30E004D2938002C293EBC313FB29
:100658000000C2957F027E0012001D3094069000B3
:100668001EE029F0E925E0F9D2957F057E00120009
:0B0678001D0A80C4D29390001EE0FF1A
:010683002254
:1000B600E4900018F0F0900018E0FFC394097480F3
:1000C60094805014740B2FF582E43400F583E4F029
:1000D600900018E004F080DE120017E4900018F09B
:1000E600900018E0FFC3940974809480501D120696
:1000F60030900018E0240BF582E43400F583EFF02D
:10010600120019900018E004F080D5D2927F0F12E9
:100116000012E4900018F0900018E0FFC3940574F4
:1001260080948050119006BB12068412001990002C
:1001360018E004F080E112000EE4900018F0900040
:1001460018E0FFC394097480948050119006C01281
:100156000684120019900018E004F080E112000EE7
:10016600E4900018F0900018E0FFC394097480949E
:10017600805014EF9006C993FF120687120019905B
:100186000018E004F080DE12000EE4900018F090F3
:100196000018E0FFC39409748094805014EF900611
:1001A600D293FF120687120019900018E004F0801F
:0A01B600DED2927F087E00020745AA
:1003B90074FF90001BF0A3F0E4A3F0C292F0900048
:1003C9001DE0FFC3940974809480501A120630907E
:1003D900001DE0240BF582E43400F583EFF0900072
:1003E9001DE004F080D8D29290000FE0FE90000E3C
:1003F900E0FDEDFF90001BEEF0A3EFF0900006E0AA
:10040900FBA3E0FAA3E0F9EE8FF0120611900012B7
:10041900E0FF900006E0FBA3E0FAA3E0F9900002F8
:10042900EF1205C4900013E09000031205C4900078
:1004390010E09000041205C4900011E0900005023C
:0204490005C4E8
:1000460053F1BF53F6BF43BA8090FF04E054F7F074
:1000560043F50153F1FE53F6FEE04404F0E054FD8F
:10006600F0E054FEF090FF00E4F0A3747DF0A3E40A
:10007600F0A374FAF090FFF2E04410F090FFF0E481
:10008600F0A374FAF0438E0475D7E075D6FE438E5E
:100096001053BA7F53F7DF53F7F753F7FB53F7FDC8
:0D00A60053F7FE43B54043F58053F5BF22EC
:06000300120046D2AF22FC
:0607F400C2AF53F57F22A5
:0300B3000207E160
:0A07E10053F6BF53F6FE53F6FD3247
:0300000002044BAC
:0C044B00787FE4F6D8FD75810F02049262
:1005C400F8BB010DE58229F582E5833AF583E8F06D
:1005D400225006E92582C8F622BBFE05E92582C819
:0205E400F22201
:1005E600BB010A89828A83E0F5F0A3E022500687E0
:1005F600F009E71922BBFE07E3F5F009E3192289A2
:0B060600828A83E493F5F074019322D4
:10061100BB010A89828A83F0E5F0A3F0225006F734
:0F06210009A7F01922BBFE06F3E5F009F3192231
:100457000201C0E493A3F8E493A34003F68001F2FA
:1004670008DFF48029E493A3F85407240CC8C333A6
:10047700C4540F4420C8834004F456800146F6DF75
:10048700E4800B0102040810204080900726E47ED8
:10049700019360BCA3FF543F30E509541FFEE4936A
:1004A700A360010ECF54C025E060A840B8E493A331
:1004B700FAE493A3F8E493A3C8C582C8CAC583CA5C
:1004C700F0A3C8C582C8CAC583CADFE9DEE780BE14
:0107440000B4
:00000001FF
